S0170000454550524F4D417454696E793434612E7372656323
S113000010C017C016C015C014C013C012C011C050
S113001010C00FC00EC00DC00CC00BC00AC009C078
S113002008C011241FBECFE5D1E0DEBFCDBF02D092
S113003041C0E6CF1ABA81E087B980E183B986B1BD
S1130040846A86B99FEF91B986B1806486B997BBFB
S113005083E880BF82E083BF80E090E011D086BF58
S113006086B1806486B983EC99E00197F1F700C00A
S1130070000085B186BF65B180E090E009D0F0CF83
S1130080E199FECF1FBA8EBBE09A99278DB30895EC
S1130090262FE199FECF1FBA8EBBE09A81500DB294
S11300A0021639F01CBA2DBB0FB6F894E29AE19A05
S10B00B00FBE0895F894FFCF80
S9030000FC
